:100000001EC088C287C286C285C284C283C282C221
:1000100081C280C27FC27EC27DC27CC27BC27AC2E4
:1000200079C278C277C20060007100051E007100BD
:1000300078800078007A00052F007A007C801124F7
:100040001FBECFE5D4E0DEBFCDBFE6E2F0E040E08A
:1000500017C0B591A59135912591059107FD0CC06B
:1000600095918591EF01F92FE82F05900D92A21738
:10007000B307D9F7FE0104C01D92A217B307E1F739
:0E008000EE33F40731F7C3D139C2F894FFCF45
:10008E00CF93DF93809177008370813061F118F008
:10009E008230C9F160C080E015D2882399F0E7E77D
:1000AE00F0E08081846080838FEF90E0A0E0B0E08C
:1000BE0080936D0090936E00A0936F00B0937000CC
:1000CE00AA9AAB9881E0FED1882309F444C0E7E7F1
:1000DE00F0E080818C7F81608083E0E6F0E06485D3
:1000EE0082850CD238C080E0EDD18823A1F1E7E7FC
:1000FE00F0E080818C7F82608083E0E6F0E06485B2
:10010E008385FCD128C080E0DDD1882321F1E7E78B
:10011E00F0E080818C7F8083C5E7D0E0A981E8E79D
:10012E00F0E0A08388818183EDECAE9FE12D112458
:10013E00E695E695E6959E2F990F892F880F880FE5
:10014E00890FA81BB0E0A05ABF4FF0E0E05AFF4F56
:0C015E006C918081D3D1DF91CF91089586
:10016A008091770082FF63C080916D0090916E004C
:10017A00A0916F00B09170000097A105B10561F0E0
:10018A000197A109B10980936D0090936E00A09325
:10019A006F00B09370000895E0917600EE2339F174
:1001AA008FEF90E0A0E0B0E080936D0090936E0036
:1001BA00A0936F00B0937000E150E0937600ADEC2D
:1001CA00EA9FA12D1124A695A695A6959A2F990F77
:1001DA00892F880F880F890FE81BF0E0E05AFF4F3C
:1001EA00B0E0A05ABF4F60818C918AD10895E7E7A9
:1001FA00F0E080818B7F8083A0917800A0937600C5
:10020A00EDECAE9FE12D1124E695E695E6959E2F3D
:10021A00990F892F880F880F890FA81BB0E0A05A61
:10022A00BF4FF0E0E05AFF4F6C91808169D1089589
:10023A0080917700837009F44BC082E045D188230E
:10024A0009F446C08091770083708130F1F4E0911F
:10025A007600E436E8F5EF5FE0937600ADECEA9FCE
:10026A00A12D1124A695A695A6959A2F990F892FA7
:10027A00880F880F890FE81BF0E0E05AFF4FB0E0C3
:10028A00A05ABF4F60818C913BD1809177008370D7
:10029A008230F1F4E0917500EE31D0F4EF5FE09333
:1002AA007500ADECEA9FA12D1124A695A695A695F9
:1002BA009A2F990F892F880F880F890FE81BF0E072
:1002CA00E05AFF4FB0E0A05ABF4F60818C9118D11D
:0202DA00089585
:1002DC0080917700837009F44BC083E0F4D08823BD
:1002EC0009F446C08091770083708130F1F4E0917D
:1002FC007600EE23E9F1E150E0937600ADECEA9F55
:10030C00A12D1124A695A695A6959A2F990F892F04
:10031C00880F880F890FE81BF0E0E05AFF4FB0E020
:10032C00A05ABF4F60818C91EAD080917700837086
:10033C008230F1F4E0917500EE23D1F0E150E093BE
:10034C007500ADECEA9FA12D1124A695A695A69556
:10035C009A2F990F892F880F880F890FE81BF0E0CF
:10036C00E05AFF4FB0E0A05ABF4F60818C91C7D0CC
:02037C000895E2
:10037E0080E090E051E0A0E026B330E0082E02C00D
:10038E00359527950A94E2F7FC01EF58FF4F452F5C
:10039E00B9016170772720FF4A2F208140FB20F999
:1003AE002083672B31F5FC01EF58FF4F208121FD93
:1003BE000EC0FC01EF58FF4F2260208320FF07C0C4
:1003CE00FC01EF58FF4F20812D7F208306C0FC01DA
:1003DE00EF58FF4F208122FF07C0FC01EF58FF4F5F
:1003EE0020812B7F2860208301968430910521F691
:1003FE000895FC01EF58FF4F208121FFE8CFE0CF99
:10040E0055D06CD0A29AA39AAA98AB98E5E7F0E0E3
:10041E00A8E7B0E011968C91119780838C9181831F
:10042E00E7E7F0E090819C7F9083EDEC8E9FE12DCD
:10043E001124E695E695E6952E2F220F922F990F11
:10044E00990F920FA82FA91BB0E0A05ABF4FF0E052
:10045E00E05AFF4F6C91808151D0AB9AC7E7D0E044
:10046E00888182FF85DF05D00BDEE0DE30DF76DEB1
:02047E00F7CFB6
:1004800012BA85B38C7F85BBA99A80917B0082BB11
:1004900083EF91E00197F1F700C0000012BA85B335
:1004A0008C7F85BBA89A80917A0082BB83EF91E014
:0A04B0000197F1F700C00000089565
:1004BA0084E0E1E7F0E0DF011D928A95E9F717BAD7
:0804CA0017BA17BA17BA08951A
:1004D200E82FF0E0EF58FF4F8081982F977F9083AD
:0804E20083FB882780F90895CF
:1004EA008FEF81BB12BA84B3836084BB85B385BBAB
:0204FA00089563
:0E04FC00EC010CD00AD0CE010AD0CE0109D0FE
:0A050A0080937B0060937A0008954F
:0205140075CDA3
:02051600089546
:02051800089544
:02051A00089542
:02051C00B6DD4A
:0D051E003F065B4F666D7D077F6F78714073
:04052B00FF000000CD
:02052F00321E7A
:00000001FF
